:020000040000FA
:020000001328C3
:080008000C1C09000C1083120E
:1000100003133C308F00B0308E00A40B0900053074
:10002000A400382809008316031386018501831272
:100030000313860185018316031306309F00831284
:1000400003138B170B17831603130C14831203135C
:100050003C308F00B0308E008312031311309000BB
:10006000831203130530A400A201A3014520362802
:1000700022080A3C03184328A201A30A2308053CCE
:10008000031C54281228A20A122863208514051084
:100090002208572086006320860185100514230856
:1000A0005720860000000800A201A3011228820741
:1000B0003F3406345B344F3466346D347D3407345A
:1000C0007F346F340800FF30A500A50B65280800B9
:02400E00313F40
:00000001FF
