:020000040000FA
:020000002228B4
:08000800831203130C1F090011
:10001000831203130C13831203131E08A300831609
:1000200003131E0883120313A400831203131E1C60
:100030001A2865209E1C4A28860174208312031307
:100040001F15090083160313FF30850086018316F0
:10005000031380309F008312031381309F008312AB
:10006000031385018601831203130A30A600A5013C
:10007000831203139E01831603139E01831203133D
:100080000C130B178B17831603130C178312031310
:100090001F157328831203139E1C56286C2086019B
:1000A000090083120313031856285A282608A402AD
:1000B000A50A5128831203130314A50325088600FB
:1000C0006C2083120313A501090083120313193056
:1000D000A500831203130800831203131F15742055
:1000E0008312031308007328A030A100A030A200DF
:0A00F000A20B7828A10B7628080067
:02400E00313F40
:00000001FF
