:020000040000FA
:020000002228B4
:08000800831203130C1F090011
:10001000831203130C13831203131E08A300831609
:1000200003131E0883120313A400831203131E1C60
:100030001A2872209E1C4C288601822083120313EA
:100040001F15090083160313FF30890086018316EC
:10005000031380309F0083120313A9309F00831283
:10006000031385018601831203130A30A600A5013C
:10007000A7010314831203139E01831603139E0129
:10008000831203130C130B178B17831603130C1710
:10009000831203131F158128831203139E1C5828F3
:1000A0007A20860109008312031303185828612857
:1000B0002608A40203185D2853280A30A507031454
:1000C00053288312031303142508860082208220FC
:1000D00082202708860082207A2083120313A5013C
:1000E000A701090083120313A70A0630A502831291
:1000F00003130800831203131F15822083120313B6
:1001000008008128A030A100A030A200A20B862800
:06011000A10B8428080089
:02400E00313F40
:00000001FF
