:020000040000FA
:100000008316031386018801831203138601880176
:1000100002303F200C303F203830BF0083120313E2
:100020000530A4000630A300061586112408A5009B
:1000300024204620A40B162833202308A5002B20BB
:100040004620A30B1D28232882074F344E34493401
:1000500053345234453482074F345A344934473488
:100060004E3445344334C0303F200800DD30A20018
:10007000DD30A100A10B3A28A20B38280800880027
:100080000612061736200613000008008800061620
:080090000617362006130800D4
:02400E00313F40
:00000001FF
